:020000040800F2
:10000000880B00208D0200089B0200089D0200085A
:100010009F020008A1020008A302000800000000DF
:10002000000000000000000000000000A502000821
:10003000A702000800000000A9020008AB020008A7
:10004000AD020008AD020008AD020008AD020008D4
:10005000AD020008AD020008AD020008AD020008C4
:10006000AD020008AD020008AD020008AD020008B4
:10007000AD020008AD020008AD020008AD020008A4
:10008000AD020008AD020008AD020008AD02000894
:10009000AD020008AD020008AD020008AD02000884
:1000A000AD020008AD020008AD020008AD02000874
:1000B000AD020008AD020008AD020008AD02000864
:1000C000AD020008AD020008AD020008AD02000854
:1000D000AD020008310A0008AD020008AD020008B8
:1000E000AD020008AD020008AD020008AD02000834
:1000F000AD020008AD020008AD020008AD02000824
:10010000AD020008AD020008AD020008AD02000813
:10011000AD020008AD020008AD020008AD02000803
:10012000AD020008AD020008AD020008AD020008F3
:10013000AD020008AD020008AD020008AD020008E3
:10014000AD020008AD020008AD020008AD020008D3
:10015000AD020008AD020008AD020008AD020008C3
:10016000AD020008AD020008AD020008AD020008B3
:10017000AD020008AD020008AD020008000000005A
:10018000AD020008AD020008AD020008AD02000893
:10019000AD020008AD020008AD020008AD02000883
:1001A000AD020008AD020008AD02000800F002F840
:1001B00000F05CF80AA090E8000C82448344AAF1A5
:1001C0000107DA4501D100F051F8AFF2090EBAE8A3
:1001D0000F0013F0010F18BFFB1A43F0010318477B
:1001E000B40C0000D40C00000A444FF0000C10F8CE
:1001F000013B13F0070408BF10F8014B1D1108BFA5
:1002000010F8015B641E05D010F8016B641E01F844
:10021000016BF9D113F0080F1EBF10F8014BAD1C94
:100220000C1B09D16D1E58BF01F801CBFAD505E0B2
:1002300014F8016B01F8016B6D1EF9D59142D6D30C
:10024000704700000023002400250026103A28BF34
:1002500078C1FBD8520728BF30C148BF0B60704738
:100260001FB500F011FE1FBD10B510BD00F035F830
:100270001146FFF7F5FF00F01BFD00F053F803B443
:10028000FFF7F2FF03BC00F04BFC00000B480168D5
:1002900041F4700101600A480047FEE7FEE7FEE70F
:1002A000FEE7FEE7FEE7FEE7FEE7FEE7FEE700000B
:1002B00004480549034A054B7047000088ED00E0FB
:1002C000AD01000888030020880B0020880300206F
:1002D00070477047704770477047754600F028F8C0
:1002E000AE4605006946534620F00700854618B023
:1002F00020B5FFF7DDFFBDE820404FF000064FF0CE
:1003000000074FF000084FF0000B21F00701AC464A
:10031000ACE8C009ACE8C009ACE8C009ACE8C00969
:100320008D4670470446AFF300802046FFF7A7FFD5
:10033000004870472803002010B500BFFC2000F0E3
:100340008DFA00F03BFA00F080000028F6D110BDD5
:1003500070B50646302000F0ABFB802000F0A8FB13
:1003600000240CE0002506E005EB0411705C00F0B1
:10037000BBFB681CC5B2102DF6DB601CC4B2042C9C
:10038000F0DB642000F0EAFB70BD30B5CC1000F16A
:10039000200353F824304C07E50E0F24AC40A34350
:1003A000CD1000F1200444F82530CC1000F12003DA
:1003B00053F824304C07E40E02FA04F42343CD1022
:1003C00000F1200444F8253030BD2DE9F0470C46FB
:1003D000DDE90867002100258C4600BF60E04FF092
:1003E000010808FA01F504EA050CAC4557D1D0F82C
:1003F00000804FEA410A4FF0030909FA0AF928EA96
:100400000908C0F80080D0F800804FEA410902FADC
:1004100009F948EA0908C0F80080012A01D0022A37
:1004200027D1D0F808804FEA410A4FF0030909FAB2
:100430000AF928EA0908C0F80880D0F808804FEACD
:10044000410906FA09F948EA0908C0F80880D0F815
:1004500004904FF0010808FA01F829EA0809C0F8E9
:100460000490D0F8048003FA01F948EA0908C0F8BA
:100470000480D0F80C804FEA410A4FF0030909FAD2
:100480000AF928EA0908C0F80C80D0F80C804FEA75
:10049000410907FA09F948EA0908C0F80C80491C23
:1004A00010299CD3BDE8F08770B50646002524E0EE
:1004B00000241EE0342000F0FBFA05F18001C8B2F0
:1004C00000F0F6FA04F18001C8B200F0F1FA302031
:1004D00000F0EEFA290101EB4401705C00F004FB2E
:1004E000290101EB4401491C705C00F0FDFA601C1D
:1004F000C4B2082CDEDB681CC5B2202DD8DB202559
:1005000024E000241EE0342000F0D2FA05F160015E
:10051000C8B200F0CDFA04F18801C8B200F0C8FA00
:10052000302000F0C5FA290101EB4401705C00F0B5
:10053000DBFA290101EB4401491C705C00F0D4FA9C
:10054000601CC4B2082CDEDB681CC5B2402DD8DBB1
:10055000362000F0ADFA4FF4966000F0FFFA342038
:1005600000F0A6FA70BD000010B5322000F0F6FAD7
:1005700000201B490860322000F0F0FA01201949E0
:10058000C1F8A002322000F0E9FA302000F090FA21
:10059000322000F0E3FA302000F08AFA322000F036
:1005A000DDFA302000F084FA322000F0D7FA032080
:1005B00000F07EFA322000F0D1FA012000F078FA43
:1005C000322000F0CBFA062000F072FA322000F060
:1005D000C5FA0C2000F06CFA322000F0BFFA10BD12
:1005E000A0024142000041421CB50D48006840F0A5
:1005F00080000B4908600120032100230246CDE959
:1006000000104FF4E0510748FFF7DFFE01200649D4
:1006100008600649C1F8AC020349083108601CBDF6
:1006200030380240001C0240A8824342008043420E
:1006300070B5342000F03CFA362000F039FA00247E
:1006400011E044F0800000F033FA802000F030FA2E
:10065000002504E0002000F047FA681CC5B2202DF8
:10066000F8DB601CC4B2202CEBDB70BD10B5302071
:1006700000F01EFA802000F01BFA002404E0202085
:1006800000F032FA601CC4B2402CF8DB10BD000050
:100690002DE9F0410746884614461D46284600F0DD
:1006A00033F8C5F1040007FA00F60F20284100EAEC
:1006B0000800064306F00F06E21704EBD26252115F
:1006C000920002F1E022D2F800212146E31704EB68
:1006D000D3635B11A4EB431C012303FA0CF31A430D
:1006E0002046E31704EBD3635B119B0003F1E02387
:1006F000C3F800210348005D40EA0610014908558F
:10070000BDE8F08100E400E00146072323EA01028E
:100710001202054B18684FF6FF031840034B1843AD
:100720001043014B186070470CED00E00000FA0523
:100730004A0A52020243014B1A60704708ED00E07A
:100740001CB51848006840F00400164908600846C7
:10075000006840F0010008600120032100230246E8
:10076000CDE900104FF470610F48FFF72EFE012015
:10077000032100230246CDE9001010210B48FFF7AA
:1007800024FE00200A4908600A49C1F8A802084965
:100790000831086001200649091F08600020064949
:1007A00008601CBD303802400008024000000240D2
:1007B000A4024142000041429002404270B500262E
:1007C000002500241CE07006060E00202149086068
:1007D0000A2000F0DFF901201F49C1F8A8020A2011
:1007E00000F0D8F900201B4908600A2000F0D2F977
:1007F0001948D0F8AC0208B1701CC6B2601CC4B273
:10080000082CE0DB00241CE06806050E00201149DE
:1008100008600A2000F0BEF901200F49C1F8A802C3
:100820000A2000F0B7F900200A4908600A2000F009
:10083000B1F90948D0F8AC0208B1681CC5B2601C17
:10084000C4B2082CE0DB06F0F00005F00F0108440C
:10085000C0B270BDA80241420000414270B50446DA
:10086000002523E00020134908600A2000F092F9D7
:1008700004F08000802804D101200E49091D086081
:1008800003E000200B49091D08606006040E0120EA
:10089000084908600A2000F07DF900200649C1F8E7
:1008A000A8020A2000F076F9681CC5B2082DD9DB31
:1008B00070BD0000A802414200004142F0B504466C
:1008C0000D4616461F461448006840F001001249C4
:1008D000086000201049083108600F4800680F497F
:1008E00008400D4908600E48091D0860081F00688F
:1008F00020F48020091F0860002007490C3108609F
:100900003B4632462946204600F00CF800210846B6
:10091000FFF70EFFF0BD000000380240FFFFF6FEBB
:1009200010300024F0B504460D46002100203D4E55
:10093000366846F480363B4F3E6001E04E1CB1B253
:10094000384E366806F400361EB941F6FF76B142DD
:10095000F4DB41F6FF76B14201D1012060E0314E77
:100960004036366846F080562E4F40373E602E4E59
:10097000366846F440462C4F3E602A4E08363668AC
:1009800046F41446274F08373E60264E366826F058
:100990008076244F3E6045EA84160127C7EB520754
:1009A00046EA074646EA036646F480061D4F3F1DA9
:1009B0003E603E1F366846F080763F1F3E6000BFB7
:1009C000184E366806F00076002EF9D0174E3668BD
:1009D00046F48076154F3E603E46366846F4007613
:1009E0003E603E46366846F480663E603E46366867
:1009F00046F005063E600B4E0836366826F00306C4
:100A0000084F08373E603E46366846F002063E60B4
:100A100000BF044E0836366806F00C06082EF8D1E2
:100A2000F0BD00000038024000700040003C024071
:100A30001C49096801F0200109B31A494968C8B284
:100A40001949098801F40041C9B91749098801F415
:100A5000804161B10A2803D00021134A118020E0AF
:100A60001149098841F400410F4A118019E00D280D
:100A700006D10D49098841F480410B4A118010E0EC
:100A800009490988C1F30D01084A505406490988EB
:100A9000491C054A118011460988C72901DD00213A
:100AA00011807047001001405C02002060020020AD
:100AB00010B5044601200A490860FFF73DFCF82004
:100AC000FFF7CCFE04F0F000FFF7C8FEF02101EACA
:100AD0000410FFF7C3FE00200249C1F8A40210BDB4
:100AE000A40241420000414210B5044601200A49D7
:100AF0000860FFF721FCFA20FFF7B0FE04F0F000D9
:100B0000FFF7ACFEF02101EA0410FFF7A7FE00207A
:100B10000249C1F8A40210BDA402414200004142B2
:100B200000BF70474FF0E021096921F004014FF048
:100B3000E0221161C21700EB5272C2F3C702054BEB
:100B40001A704FF47A714143C1F3CF01024A118008
:100B500070470000520200205402002070B5044685
:100B60004FF4077094FBF0F0C6B24FF4077094FB9B
:100B7000F0F100FB114085B205E04FF4077000F082
:100B800027F8701EC6B2002EF7D115B1284600F026
:100B90001FF870BD01460D4A12784A434FF0E0231A
:100BA0005A6100229A6101221A6100BF4FF0E022CF
:100BB000106900F001021AB100F48032002AF5D069
:100BC00000224FF0E0231A619A6170475202002020
:100BD00001460D4A12884A434FF0E0235A61002231
:100BE0009A6101221A6100BF4FF0E022106900F003
:100BF00001021AB100F48032002AF5D000224FF031
:100C0000E0231A619A617047540200202DE9F041F7
:100C100007460E4600253CE0002418E03420FFF78C
:100C200047FF802101EB4501C8B2FFF741FF04F106
:100C30008001C8B2FFF73CFF3020FFF739FF38468C
:100C4000FFF752FF3846FFF74FFF601CC4B2102C6D
:100C5000E4DB002419E03420FFF72AFF802101EBB8
:100C60004501491CC8B2FFF723FF04F18001C8B257
:100C7000FFF71EFF3020FFF71BFF3046FFF734FF62
:100C80003046FFF731FF601CC4B2102CE3DB681C58
:100C9000C5B2102DC0DB3620FFF70AFF40F2A4607A
:100CA000FFF75CFF3420FFF703FFBDE8F081000091
:100CB0000823022219214FF4B470FFF7FFFDB4207E
:100CC000FFF730FF4FF4E1315A2000F05DF8FFF7F5
:100CD0008BFCFFF735FDFFF747FC0A20FFF73EFFCF
:100CE00046E02448FFF734FB4FF47A70FFF736FFF5
:100CF0004FF47A70FFF732FF1F48FFF729FB4FF4DC
:100D00007A70FFF72BFF4FF47A70FFF727FFFFF79A
:100D1000ADFCFF210846FFF779FF5521AA20FFF718
:100D200075FFAA215520FFF771FFAA210846FFF79A
:100D30006DFF55210846FFF769FF0021FF20FFF7EF
:100D400065FFFF210020FFF761FFFFF78FFC0B48D5
:100D5000FFF7AAFB4FF4FA70FFF700FFFFF768FCFC
:100D6000FFF784FC06480068C0430649C1F8A802A2
:100D7000B7E70000000000204100002082000020B2
:100D8000A882434200804342F0B52DED028B83B030
:100D900005460E46384905FB01F000EE100AF8EE54
:100DA000400A300100EE100AB8EE400A80EE801AC8
:100DB000B0EE418ABCEEC80A10EE100A84B200EE12
:100DC000104AB8EE400A38EE400AF3EE000A20EE70
:100DD000200ABCEEC00A10EE107A4FF6FF7000EA4F
:100DE0000414E01984B22548006840F0010023494A
:100DF000086022481430006840F010001F49143188
:100E000008600120022100230A46CDE900104FF4BA
:100E1000C0611B48FFF7D9FA072209211848FFF7DC
:100E2000B4FA07220A211648FFF7AFFA1548846082
:100E3000C06820F400401349C8600846C06840F00C
:100E40000800C8600846C06840F00400C860084652
:100E5000C06840F02000C860022325220321084614
:100E6000FFF716FC0748C06840F400500549C86009
:100E700003B0BDEC028BF0BD40420F0030380240A1
:100E800000000240001001404FF04070E1EE100AF7
:100E900070470000B40E000800000020600200004F
:100EA000E8010008D40F00086002002028090000B3
:100EB000440200081041BBB6D3ADD1A1B9BACED21D
:100EC000C3C7B2FAC6B7CFDEB9ABCBBED2BABEA7E4
:100ED000CFD4CABEC4A3CEDECEFDCBB9C2F5C5B554
:100EE000BFC6BCBCD3D0BFE9B2C9D3C35354373992
:100EF0003230BFD8D6C6280D313238583634C8AB58
:100F0000B5E3D5F3332BBFC906281338583420B8BE
:100F1000F6D6D0CEC4C4DAB4F8B1EAD7BC0C480BCC
:100F2000D7D6BFE2BAAC383139321C15D7D6D0CDBE
:100F3000DAFF01E2802A01108F07FFE00FFFC010E7
:100F40002A03104929391011227F9AF83011223FC3
:100F5000AAF010221FBAE010BB8001104C0F8001D4
:100F60005F5910EC07C0031059984910EC03E007D3
:100F700010A9B011DC01F00F10BA0E1011DBF81E31
:100F800010CA1C10CB7C3C104C3C39F7F159103D79
:100F90003E79FFFFF25910141E703C9A7C10141F0A
:100FA000F03C39635910140FE03C0A191F101A075E
:100FB00010A9301407C03C9A3E101403803CBA7844
:100FC00010143E1FE05AE010120212072D3FFFE0FE
:040FD0000310E10029
:04000005080001AD41
:00000001FF
