:0300000002065F96
:0C065F00787FE4F6D8FD75810702066B79
:080676007F137E01DEFEDFFAB6
:01067E002259
:050636007F301205F207
:08063B007F277E01DEFEDFFADD
:010643002294
:0C0652007F057E1C7D34DDFEDEFADFF645
:01065E002279
:08067F007FA57E96DEFEDFFA86
:010687002250
:1005D700E4FFFEC2A7C2A6D2A5D2A7E58030E708EE
:0A05E7000FEF70010E4E70F3C2A773
:0105F10022E7
:1005F200AD071205D7C2A7C2A6C2A5AF058F80D28A
:09060200A7120676C2A7020676D3
:100622001205D7C2A77580FFD2A6D2A5D2A71206FD
:0306320076AF8020
:0106350022A2
:10060B00AD071205D7C2A7C2A5D2A6D2A7AF058F39
:07061B0080120676C2A7223F
:080688001205D77F010205F203
:10058A0012067FD2B4C2B412067FD2B41206361251
:10059A0006367F0C1205F212063B7F011205F21293
:0705AA0006527F060205F274
:1005B100E4FEED7004EF2480FEEDB40104EF24901D
:1005C100FEEDB40204EF2488FEEDB40304EF249899
:0605D100FEAF060205F278
:080690001205B1AF0302060BD5
:10052500900005EBF0A3EAF0A3E9F01205B1900005
:1005350005E0FBA3E0FAA3E0F912055B6017900064
:1005450005A3E475F001120574A9F0FA12055BFF25
:0605550012060B80D92202
:100003006C636420313238363400D6DC3200A4CE3F
:10001300CDEDC9CF003139B5E33133B7D600000098
:10002300000000000000002802038000021C000002
:1000330000000000000000118300000000400000E9
:1000430000000000000000080000000000000000A5
:100053000000000000000004000000000000000099
:10006300000000000000000200000000000000008B
:10007300000000000000000200000000000000007B
:100083000000000000001800000000000000000055
:10009300000000000000020000000000000000005B
:1000A30000000000000001800000000000000000CC
:1000B30000000000000000400000000000000000FD
:1000C300000000000000002000000000000000000D
:1000D300000000000000000000000000000000001D
:1000E3000000000000000700000000000000000006
:1000F30000000000000030000000000000000000CD
:10010300000000000000C00000000000000000002C
:10011300000000000000018000000000000000005B
:1001230000000000000002000000000000000000CA
:100133000000000000000C000000000000000000B0
:10014300000000000000100000000000000000009C
:1001530000000000000020800000000000000000FC
:100163000000000000008F8000000000000000007D
:10017300000000000001ED0000000000000000008E
:100183000000000000030202000000000000000065
:100193000000000000000404020000000000000052
:1001A300000000000000080404033C0000000000FD
:1001B30000000000000000480C04010FC000000014
:1001C30000000000000010E828100000F00000000C
:1001D30000000000000025308840000008040000F3
:1001E3000000000000007FF3010000000206000091
:1001F300000000000000C6E4120000000205000039
:1002030000000000000016FC1400000401040000BC
:1002130000000200000016F4180000000084000033
:1002230000000700000022E817000000004400005F
:1002330000000F00000023783FE0000000040000EE
:1002430000001F0000004D981FFE000007EC000097
:1002530000003F80000054C00DFFE000FFE80000F5
:1002630000007FC00000C0C000FEE03FFF79000037
:100273000003FFE0000088780000601FFF89000092
:100283000007FFE000000838000000707002000063
:10029300000FFFE0000008840000C000000300001E
:1002A300001FFFFC00000A84000000E0200E000095
:1002B300003FFFFFC003FC86000000800010000029
:1002C300007FFFFFFFFFF8860001C1C00020000090
:1002D30000FFFFFFFFFFFE9F000000000041000042
:1002E30003FFFFFFFFFFFCBC800000000082000053
:1002F30001FFFFFFFFFFFEF88000C1000172000055
:1003030000FFFFFFFFFFFCF840003E0006940000E3
:10031300007FFFFFFFFFFDFC300000000D18000011
:10032300003FFFFFFFFFFE78180000002B000000D6
:10033300003FFFFFFFFFE03E4C0FE00091E00000B5
:10034300001FFFFFFFFC003E4904018231C800008B
:10035300000FFFFFFFE0007E00C0001861C0000037
:100363000007FFFFFFF0018E103800E0C3C000005C
:100373000003FFFFFFF8010F8003C602C3F0000074
:100383000000FFFFFFFE0007C4880049A798000094
:1003930000007FFFFFFF8003FA6489649E00000072
:1003A300001FFFFFFFFF8001FFF20890FC00000029
:1003B30001FFFFFFFFFF80007E988042F0000000F6
:1003C3001FFFFFFFFFFF80000FD3245FE00000004B
:1003D300FFFFFFFFFFFF80000DFDD3FF8000000341
:1003E300FFFFFFFFFFFFC000087FEFF30000000FD8
:1003F300FFFFFFFFFFFFC0000007FF830000003F78
:10040300FFFFFFFFFFFFC00000000000000000FF30
:0E041300FFFFFFFFFFFFE00000000000000001
:0D0644007F2E7E987D46DDFEDEFADFF6009B
:010651002286
:1004D4007F301205F212064412058A7BFF7A0079F6
:1004E40003E4FD7F021205257BFF7A00790D7D016F
:1004F4007F031205257BFF7A0079117D027F0412A8
:1005040005257B037D03E4FF1206907BFF7A0079C7
:10051400187D037F021205257B037D037F070206F6
:010524009046
:0B042100900000EBF0A3EAF0A3E9F06C
:10042C0012058A7F341205F2E4900003F090000369
:10043C00E0FFC39420503CEF2480FF1205F27F8034
:10044C001205F2E4900004F0900000E0FBA3E475C8
:10045C00F001120574A9F0FA12055BFF12060B905D
:10046C000004E004F0E0C3941040DD900003E004CD
:10047C00F080BAE4900003F0900003E0FFC39420F6
:10048C00503CEF2480FF1205F27F881205F2E490B5
:10049C000004F0900000E0FBA3E475F00112057479
:1004AC00A9F0FA12055BFF12060B900004E004F0B1
:1004BC00E0C3941040DD900003E004F080BA7F3676
:0804CC001205F27F300205F277
:0B066B007BFF7A00792112042180FE41
:10055B00BB010689828A83E0225002E722BBFE029E
:09056B00E32289828A83E49322D1
:10057400A3F8E0C5F025F0F0E5821582700215833A
:06058400E0C838F0E82297
:00000001FF
